:10000000804000201D1B0000036E0000091B000043
:10001000091B0000091B0000091B00000000000074
:10002000000000000000000000000000F91B0000BC
:10003000091B000000000000091B0000091B000054
:100040008D1D00008D1D00008D1D00008D1D000008
:100050008D1D00008D1D00008D1D00008D1D0000F8
:100060008D1D00008D1D00008D1D00008D1D0000E8
:100070008D1D00008D1D00008D1D00008D1D0000D8
:100080008D1D00008D1D00008D1D00008D1D0000C8
:100090008D1D00008D1D00008D1D00008D1D0000B8
:1000A0008D1D00008D1D00008D1D00008D1D0000A8
:1000B0008D1D00008D1D00008D1D00008D1D000098
:1000C0008D1D00008D1D00008D1D00008D1D000088
:1000D0008D1D00008D1D00008D1D00008D1D000078
:1000E0008D1D00008D1D00008D1D00008D1D000068
:1000F0008D1D00008D1D00008D1D00008D1D000058
:1001000053B94AB9002908BF00281CBF4FF0FF317E
:100110004FF0FF3000F06AB9ADF1080C6DE904CE84
:1001200000F006F8DDF804E0DDE9022304B07047D2
:100130002DE9F047089D0C46002B4ED194468C4586
:100140008646B2FA82F262D94AB1C2F120039140E6
:1001500020FA03F30CFA02FC194300FA02FE4FEAFC
:100160001C471FFA8CF6B1FBF7F44FEA1E4307FB5E
:10017000141143EA014304FB06F199420AD91CEB2E
:10018000030304F1FF3080F01281994240F20F81A5
:10019000023C6344591A1FFA8EF3B1FBF7F007FBD8
:1001A000101143EA014300FB06F69E420AD91CEBFC
:1001B000030300F1FF3180F0FC809E4240F2F980A1
:1001C000634402389B1B40EA044000211DB1D34028
:1001D0000022C5E90032BDE8F0878B4205D90DB198
:1001E000C5E9000100210846F5E7B3FA83F10029CB
:1001F00046D1A34202D39042C0F0F080861A64EB4D
:1002000003030120002DE6D0C5E90063E3E7002ADF
:1002100040F09080A1EB0C044FEA1C481FFA8CF7C9
:100220000121B4FBF8F64FEA1E4308FB164443EAEB
:10023000044307FB06F0984208D91CEB030306F1C0
:10024000FF3402D2984200F2CD8026461C1A1FFAD3
:100250008EF3B4FBF8F008FB104443EA044300FBC0
:1002600007F79F4208D91CEB030300F1FF3402D2C9
:100270009F4200F2B0802046DB1B40EA0640A5E723
:10028000C1F120068B4022FA06F71F4320FA06FC34
:1002900004FA01F343EA0C03F44000FA01F8380CC5
:1002A0004FEA1349B4FBF0FE1FFA87FC00FB1E4423
:1002B00049EA04440EFB0CF9A14502FA01F20AD9FD
:1002C0003C190EF1FF3A80F08480A14540F2818014
:1002D000AEF1020E3C44A4EB09041FFA83F9B4FB0F
:1002E000F0F300FB134449EA044403FB0CFCA4456F
:1002F00007D93C1903F1FF3067D2A44565D9023B09
:100300003C4443EA0E40A0FB0293A4EB0C049C4245
:10031000CE469C4651D34ED055B1B8EB0E0364EB9C
:100320000C0404FA06F6CB401E43CC40C5E9006439
:10033000002150E7C2F1200320FA03F10CFA02FC7D
:1003400024FA03F394400C434FEA1C4800FA02FEDF
:100350001FFA8CF7B3FBF8F008FB1031230C43EACB
:10036000014300FB07F1994208D91CEB030300F19C
:10037000FF362CD299422AD9023863445B1AA4B2C0
:10038000B3FBF8F108FB113344EA034401FB07F324
:10039000A34208D91CEB040401F1FF3613D2A34297
:1003A00011D902396444E41A41EA004139E70446AC
:1003B000F0E6084606E7C845AED2B9EB020E63EB9D
:1003C000070C0138A8E73146EDE7034699E73046C8
:1003D000D4E7D6467FE7634402384DE70646234616
:1003E00008460FE7023E634430E700BF704700BF96
:1003F000F0B5224B224AC3F8002685B0C3F8042684
:10040000C3F80826C3F80C26C3F81026C3F8142630
:10041000C3F81826C3F81C2605F08CFF01A800F0CD
:100420001FFC184B1B68834200D0FEE74FF440418D
:10043000002006F088FF044600B1FEE769469DF8FB
:10044000080005F056FF009B039D1D44019B1E897B
:1004500002F08CFFAF1900F025FE00F0F9FD01F06D
:1004600087FBAB5983F3088884F31488BFF36F8F3D
:10047000BFF36F8F7B689847FEE700BF0000014025
:100480003546526EB801002021B1012906D06FF027
:1004900015007047044B53F830007047024B03EBD4
:1004A000C0035868704700BF787900002DE9F04F0D
:1004B000DFF824B2DDB0DDE9688916461C466A9F84
:1004C000DBF8005000F08EFD7F4B0122C3F80025C1
:1004D0003CA804F04DFEB8F1000F07D0B9F1000FB1
:1004E00004DD4A4641463CA806F00FFB3389728979
:1004F000D6F80CA013449A444FF00008C2456AD8BD
:100500000FA93CA804F0A6FE6F4B0022C3F80025FB
:10051000C3F8002527B120220FA9384606F0D9FCE0
:100520000023009331464FF6FF73224609A805F0D9
:1005300002FF064600285FD120460E9F05F0FEFF11
:10054000874259D8DFF894A1DFF87C814FF0FF375C
:100550000DF11E0307AA08A909A805F03AFF002813
:100560004ADB40F0AB80089909A805F07EFF50B93E
:10057000BDF81E00554A4FF6FF7132F8023B8B4220
:100580003AD09842F9D1BDF81E90B9F1100F3DD084
:10059000B9F1220F75D0B9F1010FD9D1BDF81C30D6
:1005A000202B29D808993CAA204606F0AAFB07462A
:1005B00010BB9DF81C300393202B09D8DAF80020DB
:1005C000434B0492049A974237DB0023C8F8003566
:1005D0004FF0FF37BCE7679B669AAAEB080999457D
:1005E00028BF99464B464146204606F08AFB30B16B
:1005F000354B0022C3F80025DBF8005060E0669917
:100600004A463CA806F081FAC84477E7BDF81C606A
:10061000202EF1D1089933463CAA204606F071FB02
:100620000028E9D132463CA90FA805F058FF294B14
:100630001B688342E0D101268AE7059300F0D2FCD3
:10064000C8F800951FA804F093FD059B5A6853F85D
:10065000081B126805931FA806F057FA17A91FA8D0
:1006600004F0F8FD0022C8F80025039A3CA917A859
:1006700006F008FC059B10B9C8F8000568E70137CB
:10068000A0E77B1C3FF464AFDAF80030BB429FDD8B
:10069000BDF81C30802BAFD808993CAA204606F044
:1006A00030FB0028A8D1FFB2BDF81C3000973CAA4F
:1006B00020210FA800F014F8054689E7002E9BD0F2
:1006C00028465DB0BDE8F08F00A00250087D000014
:1006D00084790000B8010020040000208079000027
:1006E0002DE9F04796B016461D469DF87820374B09
:1006F000DFF8E88053F83210019103EBC20307469C
:100700005B68D8F80090186802AA0144302301A859
:1007100006F089F9002851D1DDE901431C4403AA00
:1007200006AB214601A806F0A6F9002846D1049A96
:10073000072A43D12649059806F0A4FB00283DD19D
:10074000079A082A3AD12349089806F09BFBA8BBD0
:1007500002AA214601A806F07AF978BBDDE901A3D7
:100760000AEB0302944229D1412B27D1354430238F
:1007700003AA294602A8029606F055F9E0B9DDE978
:10078000023213449D4217D32A4602A906A805F057
:100790007AFE88B92A4602A90EA805F074FE58B957
:1007A0009AF80030042B07D1202306AA0AF1010190
:1007B000384600F02FFC28B1D8F80090484616B013
:1007C000BDE8F087044BD3F80090F7E78479000088
:1007D000557D00004C7D0000B80100200400002081
:1007E000094A0B78400052F820108B4209D00130A2
:1007F00052F82000834214BF4FF0FF304FF4C07016
:1008000070474FF4C07070478C7900001FB50F4BD4
:1008100013F830000C4600F0B9FF50B92068816829
:1008200010236A46103906F06CFA28B1206806F0E9
:1008300067FA4FF0FF3006E005491022684606F0DF
:1008400021FB0028F2D104B010BD00BF8C7900005C
:100850003C7D00002DE9F041354F88B00646002070
:100860000D463C68FFF710FE06A9C0B200F08EFFEF
:10087000E0B92946FFF708FE2C2407A9C0B204FB03
:10088000056400F083FFA8B12C2068433218069B52
:10089000116911F0100F1DD01DB10699304605F0F9
:1008A0001EFF244B1C68069806F02AFA204608B062
:1008B000BDE8F081079806F06FFA8046079806F0C9
:1008C0001FFA631EE21C13F8011F4145DCD19A4256
:1008D000F9D1E1E736581848864226D1D668108902
:1008E000801922D2528912181FD2986882421CD2D3
:1008F00040F60C62114018D14FF4807201920F4AF9
:100900000092CDE90311224602910846FFF7CEFD81
:1009100004460B4B1B68A342C5D0002DC1D00698DE
:100920000021826806F017FABBE73C68F1E700BFD8
:1009300004000020000000203DB8F396180F0020AE
:10094000B80100207FB50D46044600212846CDE9B8
:10095000021105F083FEE8B12368154EB34203D1BE
:1009600003AA204605F00FFEE36AB34204D102AAAF
:100970000121204605F007FEDDE90232934288BFDF
:100980000393039BAB60039A2946204600F03EFA8E
:1009900004B070BD01A9FFF739FF019805F1080106
:1009A00005F0AFFDAB680198039306F0A9F9EAE7FB
:1009B0003DB8F3962DE9F84FDFF878B01B4C1C4D8D
:1009C000884691469A4600260B9B9E4201D3002002
:1009D0000FE00B9B174A9F1BB7F5806F28BF4FF4A2
:1009E00080673B4606EB0A01404606F08AF910B1E3
:1009F0000120BDE8F88F0A993B465A4671184846CF
:100A000006F094F90028F3D1C4F800563E44C4F827
:100A10000456C4F80856C4F80C56C4F81056C4F866
:100A20001456C4F81856C4F81C56CDE7000001400F
:100A30003546526EBC010020F0B5854B43620E4630
:100A400003F58063002187B0044603650846FFF77D
:100A50001BFD04F12001C0B200F098FE002859D11E
:100A60000121FFF711FD04F14C01C0B200F08EFE30
:100A700000284FD1204605F0C7FD00284BD10022A9
:100A80001146204605F069FD00285BD1204605F09F
:100A900035FF002856D002A805F0D7FD01462046B4
:100AA00005F071FE00284DD102A805F0D7FD80F0B9
:100AB000010102AAC9B2204605F04FFD02460028F6
:100AC00040D102A805F0CAFD054600283ED102A982
:100AD0002046FFF737FF9DF80F3084F85830033B6E
:100AE000012B06D8284600F0E1F810B1FF2384F866
:100AF00058309DF80F30023B022B06D8002000F042
:100B0000BFF810B1FF2384F8583094F85830FF2B09
:100B100013D1FEE7FEE70123984284F85830AED1A6
:100B200094F858308DF80F30042B37D8012B3BD870
:100B300050D0FF2384F858304CE002AA0021204610
:100B400005F00BFD012384F85830E9E79DF80F709C
:100B5000012F17D1104602F0B5FC831E022B05466B
:100B60000DD839462046FFF775FE3A4B1B68984270
:100B700005D0394B1D68A84214BF0525012584F80E
:100B80005850CDE701212046FFF764FE314B1B682A
:100B900098420CBF9DF80F300523D4E7052BC8D130
:100BA000002000F083F810E002A92046FFF7CAFEFB
:100BB00094F85830DA1E012A0AD8002000F076F89E
:100BC0000028B6D1002000F05BF80028B1D101E088
:100BD000022BF7D094F85830FF2B00D1FEE700220B
:100BE000012B1E4D019213D01146204605F0B5FC95
:100BF00070B12D681022002102A806F075F9E06C92
:100C000006F07EF8206A06F07BF8284607B0F0BDB3
:100C100000212046FFF71EFE0E4F3B688342E8D1BD
:100C20002A689A42E5D00C4A12689A42E1D0019BA8
:100C300001330193019B012B00D0FEE7206A05F0F0
:100C40005EFB3071236A5B6834603D68B360D1E756
:100C5000BC050020B8010020000000200400002096
:100C600038B5064D044660220021284606F03CF9BE
:100C700021462846FFF7E0FE38BD00BFBC0D00202E
:100C800013B5094B01A913F8300000F07FFD48B9F6
:100C9000019806F011FC0446019806F031F8204650
:100CA00002B010BD0124FAE7947900001FB50F4B84
:100CB00001A913F8300000F069FDA8B9019802A954
:100CC00002F0AAFB044668B99DF80B30032B03D150
:100CD000019806F0BFFB0446019806F011F8204683
:100CE00004B010BD0124F7E70124F8E7947900006F
:100CF0002DE9F34106460C4617461D460BB9002662
:100D000028E0184605F0AAFC0028F8D16946FFF74C
:100D10007DFD009838B90124009805F0F1FF2046C8
:100D200002B0BDE8F08101A905F0EBFB0028F2D18B
:100D3000009805F0E5FF3046019905F071FD736AF2
:100D40005E686B79012B21D1002CD8D12B688342AE
:100D500098BF002621460020FFF796FB6946C0B2E7
:100D600000F014FD0028D6D1009820233A463146E1
:100D700005F0C7FF04460028CDD1002DCCD03C683B
:100D80000D4BE41A18BF4FF0FF34C5E7022BB6D164
:100D90002B68012B05D98342B1D8B4FA84F46409D5
:100DA000ADE7ACD1002CD5D0012CA8D12C79023CD8
:100DB00018BF0124A3E700BF3DB8F39673B54B6895
:100DC0001446114A03F0FF23934206460D4618D1FC
:100DD0000B68012B15D16946204602F01DFB9DF8DA
:100DE0000030032B0DD12146304605F078FC20461B
:100DF00006F030FBA968204605F091FB204602F082
:100E0000EBFA02B070BD00BF000100042DE9F04F05
:100E10000C4689B01146054605F002FD6B6A039049
:100E200020465E6805F01AFC90B1E86D05F059FBAC
:100E3000AB6A0022013B3244904201D9013BFAE700
:100E4000039A934204D80123E37109B0BDE8F08FFF
:100E500006A9022000F09AFC07A9052000F096FCE4
:100E6000079A21462846FFF7A9FF6379012B4BD14A
:100E7000039FDFF858B141E022680399C2F10103F2
:100E80000B44BB4239D36B6A196853F8370003EB44
:100E9000C703012A53F8083CA0EB0109A3EB010AA0
:100EA00011D1079B0493E368022B08D041462846E2
:100EB00005F015FC22464146284605F045FC0499FC
:100EC000284605F00CFC32464946404605F005FC34
:100ED000534642464146CDE900962846FFF76AFD53
:100EE0002146284605F0C7FB23680133236020B163
:100EF000DBF800300133CBF80030013FDDF818801B
:100F0000002FB9D101232360022363710127039BC2
:100F1000DDF818909F4206D9484605F0F1FE079883
:100F200005F0EEFE91E72368BB424DD86A6ADDF812
:100F30001CA052F83710D2F800B00491FB00083B17
:100F4000D1582A6DD0581368A0EB03082379012BE0
:100F500038D1A1EB0B0132464846059105F0BDFBA7
:100F60000599009143464A46514601962846FFF7A7
:100F700021FD2146284605F07EFB0223237118B18E
:100F8000124A13680133136032464146504605F059
:100F9000A4FB049B5246A3EB0B034946CDE9008614
:100FA0002846FFF707FD2146284605F064FB236825
:100FB000013323600123237130B1044A13680133E4
:100FC000136001E0022BDFD00137A0E71C0E0020E8
:100FD0000A4619B1024B00211B681847704700BF31
:100FE0000800002070B5094D2B780BB1002070BDB2
:100FF000074C0126C4F8006504F05CF918B92E709E
:10100000C4F80005F2E74FF0FF30F0E718100020B9
:1010100000A002502DE9F041DFF83080ACB01F464F
:1010200006460C461546FFF7DDFF0123C8F80035DC
:101030002A4633460097214603A806F02FFB0023DB
:10104000C8F800352CB0BDE8F08100BF00A0025008
:10105000BFF36F8F72B6124B4FF0FF32C3F8802090
:10106000C3F88420C3F88820C3F88C20C3F89020EC
:10107000C3F89420C3F89820C3F89C20C3F88021BB
:10108000C3F88421C3F88821C3F88C21C3F89021C8
:10109000C3F89421C3F89821C3F89C21704700BF7E
:1010A00000E100E0F8B5254B254D4FF0FF34012756
:1010B0005F60C3F84843C3F8084303F5C043002604
:1010C0005F60C3F84843C3F8084303F59833022030
:1010D0005F60C3F84843C3F80843C5F8084300F00D
:1010E000A9FD6F60C5F84C61D5F84C31C5F81061A9
:1010F000D5F81031C5F84461D5F84431C5F800651C
:1011000005F518352820C5F8084300F093FD6F60F9
:10111000C5F84C61D5F84C31C5F81061D5F81031DF
:10112000C5F84461D5F84431064BC5F80065C3F8ED
:1011300008454FF08043C3F80843F8BD00B00040B5
:101140000020004000F00140014B1B68184700BF21
:101150000C00002007B50B46002102460091034811
:1011600000F006F803B05DF804FB00BF4911000071
:101170002DE9F04F8DB01D46531E82460191039319
:101180004FF00009039B5878252803F1010419D179
:101190001E4600204FF0FF380236034602904446B8
:1011A00031780396392954D81F2914D8002900F022
:1011B000E88101992520D04701993078D04709F17D
:1011C0000209DFE7002800F0DC810199D04709F12E
:1011D00001090394D6E7A1F12002192AE9D801A751
:1011E00057F822F04D120000B3110000B3110000B7
:1011F0004D120000B3110000CD120000B311000029
:10120000B3110000B3110000B31100001913000066
:101210004D120000B31100002D130000D912000080
:10122000B3110000E71200000713000007130000CD
:101230000713000007130000071300000713000046
:1012400007130000071300000713000008460136CB
:10125000A6E7582900F00F81A1F16302D7B2172F3A
:10126000A7D8172AA5D801A757F822F0D314000051
:1012700053130000B3110000B3110000B3110000BC
:101280003313000053130000B3110000B31100002A
:1012900033130000B3110000B3110000B3110000BC
:1012A00021140000B3110000B3110000B3140000BA
:1012B000B311000053130000B3110000B31100007C
:1012C00021140000B3110000331300000199252000
:1012D000D04709F1010955E7029A02F0FE02029295
:1012E0004FF00008B3E7002C0DDAB8F1000F0DDA6B
:1012F000029A002A00F0398124EAE4740A2202FBEF
:101300000414303CA3E7B8F1000FF5DB0A2202FB1E
:101310000812A2F130089AE7B8F1000F55F8042B33
:1013200080F22581002A80F2248154420222029216
:101330008DE7682903D1682B06D1482387E76C29FC
:1013400002D16C2B00F01781002B7FF432AF0B46DB
:101350007DE77A2B06D1752955F8046B14D14FF02F
:10136000000B0CE06C2BF6D04C2BF4D1073525F09C
:1013700007037529D3E9006B03F1080506D120287E
:1013800047D1824F013C09E04FEAE67BBBF1000FF9
:10139000F5DA76427E4F6BEB4B0B013C0DF12D03E2
:1013A000059300230493304659460A220023FEF792
:1013B000A7FE059B303203F8012DB446049A05932D
:1013C000BCF10A0F5B4673F100038B4602F1FF315B
:1013D00006460491E7D2C2F1010B02F130030DEB96
:1013E0000306B8F1000FA6F1040604DA029B13F01D
:1013F000010F18BFA046A8EB0B03002B0493029B20
:10140000D4BFA4EB0B04A4EB08049B0774D4A04640
:101410006AE02B280ABF5F4F5F4F04F1FF34BDE73E
:10142000702927D155F8042B0023002A00F0A5804D
:101430005A4F023C01F06001A1F1390B0DF12D0E64
:10144000002602F00F01092988BF594430310EF8F7
:10145000011D102A4FEA121141EA03714FEA131CD1
:1014600073F1000306F1FF301FD2C6F1010B06F144
:101470003003B4E778216C2B03D155F8042B0023FB
:1014800008E04C2BF9D1073525F007031D465B68B2
:1014900055F8082B232806D14048414F11F0200F62
:1014A00018BF0746C5E73C4FC4E706460A466346F1
:1014B000C7E755F8046B304605F0DDFCB8F1000FC6
:1014C000834602DB4045A8BFC346334F4FF00008B8
:1014D00091E755F8043B8DF818304FF0010B06AE3C
:1014E000F3E701992020D047B8F10108F9D524EAA3
:1014F000E472013C9144A41AB84604E002920199B6
:10150000D047029A9046424612F8010B0028F5D1C6
:10151000049A013A16D5049B5A4623EAE373013A2A
:1015200016D5BBF1000FACBFC7EB0B077F421F44C2
:101530004F442646013E14D5002CA8BF3F1907EBA7
:1015400008091FE6029201993020D047029AE0E78D
:1015500004930292019916F8010BD047049B029A5A
:10156000DDE701992020D047E4E70122DFE690463D
:101570006DE614466BE64C2369E60A4E4FF0050B08
:10158000A3E748460DB0BDE8F08F00BFBA7D00006C
:10159000B87D0000BC7D00002D7E0000BE7D0000F7
:1015A000C17D0000C47D00002DE9F84F058B044685
:1015B000280790460CD501290CBF45F0100545F0D1
:1015C0002005258388F31188BFF36F8FBDE8F88F5E
:1015D0006A4E05F0070502290DD1204605F0BFFA35
:1015E0000028EFD00138238B042871D8DFE800F001
:1015F0000370546068006769218B002F1BDA002399
:10160000D4F80090C4E9003321F0070141F0010152
:1016100021834FF0000A228B02F0070BAB4502D06A
:10162000A368002B5AD1B9F1000F02D1BAF1000F13
:1016300071D0002353E001F007035A1F012A1BD881
:10164000002221F00701062BD4F8009089B2C4E9EA
:10165000002209D14B4603E0628B013262831B6892
:10166000002BF9D141F002012183204605F077FAE1
:1016700090B341F02001CBE7042B0AD121F0070100
:1016800089B22183204605F06AFA10B141F02001A9
:1016900021834FF00009BCE7226923F00703D2F849
:1016A00000A043F0060323834FF000094F46B2E742
:1016B000226923F00703D2F804A043F00403F2E701
:1016C000226923F00703D2F808A043F00503EAE7F4
:1016D0004FF00009CA46E9E782469CE7012342F041
:1016E0000802228388F31188BFF36F8F0BBBB9F117
:1016F000000F31D1BAF1000F02D031462046D04759
:10170000EFF31188202383F31288BFF36F8F238BAD
:1017100023F008032383238BDA0626D523F0100356
:1017200023830121258B05F0070500297FF453AFA2
:1017300048E7A1680029DAD00D680029D7D0D1F890
:1017400004803B465A462046C0471DB12B682946B7
:101750001D46F2E72B46FAE749463B465A462046E5
:10176000D9F8009005F027FAC1E713F020011EBF59
:1017700023F0200323830221D4E700BFE36B0000A2
:10178000014B036000207047A079000070B5114B39
:101790001C680D46DCB1104B196800238B4202DB3C
:1017A0006FF0010070BD224612F8106B864202D025
:1017B00001331446F2E7E06810B96FF01200F1E768
:1017C00005F024FF0028F8D02C600020EAE76FF035
:1017D0000C00E7E710000020A079000070B588B089
:1017E00005460C46C0B269461646FFF7CFFF0028F3
:1017F0001BDB0098C8B14368029383682268019597
:10180000CDE903360023CDE906230593C56805F02D
:1018100077FA6DB12846084901AA05F0B5FC07988A
:1018200008B9059B236008B070BD6FF01500FAE79A
:101830006FF01200F7E700BFA76D000008B505487C
:1018400005F080F9044805F07DF9BDE8084003483B
:1018500005F078B9CA7D0000FB7D00002E7E0000F7
:10186000014803F0D7B900BF047A000030BFFFF78A
:10187000FDBF00BF70B5264B15469A6A12F0100FD7
:101880009A6A14BF1124102412F0080F9A6A18BF24
:101890001224920706460AD5586B9A6A140634D564
:1018A00019B19A6A22F080029A62132401E06FF063
:1018B0001500174B9A6A12F0010F9A6A18BF142488
:1018C00012F0200F9A6A18BF1524D20602D49B6A20
:1018D0009B070AD50E4B5B68190506D5314600F00B
:1018E00011FA10B180F309880224094B9A6A920612
:1018F00042BF5A6A22F400525A629A6A42F0FF02C8
:101900009A6200232B70204670BD6FF01500CCE763
:1019100000ED00E0134B9A6A12F0007F9A6A14BF40
:101920001E201D2012F0807F9A6A18BF1F2012F41B
:10193000002F9A6A18BF212012F4802F9A6A18BFCC
:10194000222012F4003F9A6A18BF232012F4803F2D
:101950009A6A6FEA02426FEA12429A6218BF242022
:10196000704700BF00ED00E010B5194B0246986AC1
:101970009C6A10F4805F14BF1720162014F4006FC7
:101980009C6A18BF1820A40509D5986B986A0004B2
:1019900004D51AB19A6A22F400429A6219200C4BBB
:1019A0009A6A12F4806F9A6A18BF1A20D2050CD472
:1019B0009B6A13F4005F18BF1C20054A936A43F426
:1019C0007F43936200230B7010BD1B20F5E700BF1F
:1019D00000ED00E070B5454B5B688AB00546C3F387
:1019E0000803002686F31188BFF36F8F02F07F4053
:1019F000B0F17F4F11D102F00C0008280DD0100774
:101A00004CBF0D4601260022033B8DF80720032B17
:101A100005D8DFE803F01E5D615A3546F3E7002480
:101A20009DF807309BB92022294602A805F051FAFB
:101A3000099B002E54D0C3F3080222B96FEA532346
:101A40006FEA4323099302A9204605F0D0F90AB0B2
:101A500070BD264BDA6A9107E1D4DA6A002ADEDB30
:101A6000DA6A5200DBD55A69A96942F480725A6178
:101A7000BFF34F8FBFF36F8F5A6931F8021C22F406
:101A800080725A61BFF34F8FBFF36F8F4DF60272B2
:101A900091420AD09A6AD2B24AB10DF107020121ED
:101AA0002846FFF7E7FE0446BAE72C68B8E79A6ACB
:101AB00012F47F4F05D00DF107010120FFF754FF0D
:101AC000F1E79B6AB3F5803FA9D3FFF723FFEAE76D
:101AD0000DF107020021E3E70DF107010020EDE71A
:101AE00023F4FF7323F00103ACE700BF00ED00E037
:101AF000044B5A6942F010025A615A6922F00802F6
:101B00005A61704700ED00E0EFF30880EFF30981C0
:101B100001B57246FFF75EFF01BD00BF002080F3F4
:101B20001488BFF36F8F01F039FD00200D49086064
:101B3000BFF34F8F0C4880F3088800F02BF820206B
:101B400080F3118809484FF40461401880F3098834
:101B5000EFF314800221084380F31488BFF36F8FE2
:101B600000F0A2F894ED00E080400020401000203A
:101B70000749D1F890200023C2F307221846934268
:101B800000DB7047C1F89830C1F8A0000133F6E7D8
:101B900000ED00E008B572B6002383F31388FFF769
:101BA000E7FF144B4FF0FF32C3F88020C3F88420C6
:101BB000C3F88820C3F88C20C3F89020C3F8942081
:101BC000C3F89820C3F89C20C3F88021C3F884216F
:101BD000C3F88821C3F88C21C3F89021C3F894215D
:101BE000C3F89821C3F89C2162B6BFF34F8FBFF3AF
:101BF0006F8F08BD00E100E01EF0040F0CBFEFF393
:101C00000880EFF30980816911F8021C0229FFD0D6
:101C100001B505F0F2F801BD40B2002807DB044A27
:101C20004109012300F01F00834042F82130704732
:101C300000E100E040B200280CDB4309064900F057
:101C40001F0020330122824041F82320BFF34F8F31
:101C5000BFF36F8F704700BF00E100E0054B420902
:101C600000F01F0053F82220012303FA00F0104077
:101C7000704700BF00E100E040B20028A8BF00F1BB
:101C8000604001F10101B8BF064B4FEA4111ACBF02
:101C900000F5614000F00F00C9B2B4BF195480F8DC
:101CA0000013704714ED00E0144A08B5144B22F0FD
:101CB0007F029A60BFF34F8FBFF36F8FD3F88820F6
:101CC00022F47002C3F88820D3F8882042F4A002DE
:101CD000C3F888204FF04042C3F83422BFF34F8F3F
:101CE000BFF36F8F0023E1EE103A02F043FE02F0E3
:101CF00089FE00F03FF802F049FE00BF000000003E
:101D000000ED00E010F1160F074B08D0984208D301
:101D10004033834205D98B4203D90448704740338E
:101D2000F9E70020704700BF80180020C01800208D
:101D300080B5154606460C460022E1EE102A074FF4
:101D400087F309884FF00000054988472046294657
:101D50001A46B04703488047FEE700BFC040002056
:101D60001B6E0000296E0000014B10221A617047A3
:101D700000ED00E0044800232021C2180133302B7D
:101D800082F80013F9D1704700E100E008B5EFF3E5
:101D90000583064A103B02EBC30152F83300496841
:101DA0008847BDE8084005F033B800BFA8770000B9
:101DB000024B034A0348022100F066B800000420E9
:101DC000000000200C7A0000084AC2F898000B6856
:101DD00023F01F03034343F01003C2F89C308B68C9
:101DE00043F00103C2F8A030704700BF00ED00E0EF
:101DF0002DE9F043DFF8608085B00E461F460446AB
:101E00004FF00009B14523DA6068D8B13FB1411EF7
:101E100008421BD11F2819D92368194216D12368FB
:101E2000019305F018F8A36803430393D8F8905082
:101E3000C5F30725D0B2013DA84207D801A9FFF795
:101E4000C3FF421C09F101090C34DBE76FF01502F6
:101E5000104605B0BDE8F08300ED00E0044B05221C
:101E6000C3F89420BFF34F8FBFF36F8F704700BF4D
:101E700000ED00E0BFF35F8F024B0022C3F8942017
:101E8000704700BF00ED00E010B5034C012322783D
:101E9000FFF7AEFF207010BD191000202DE9F043B0
:101EA000534B544CD3F890302568C3F307239D421D
:101EB00085B000F29A80FFF7DDFF00200C268542F6
:101EC0001AD14D4C4D4F25706846FFF759FCDFF88D
:101ED0002081DFF82C9106460025AE4213D12378ED
:101EE00043490020D1F89020C2F30722934276DBC9
:101EF000FFF7B4FF002042E0616806FB0011FFF726
:101F000063FF0130DBE7009800EB05114FEA051C89
:101F1000CB683B40B3F5000F48D00AD8B3F5001F9B
:101F200030D0B3F5800F36D0B3F5801F10D0013517
:101F3000D3E7B3F1807F42D0B3F1007FF7D150F8FF
:101F40000C3088684A6804F086FF40F4802009E07D
:101F500050F80C3088684A6804F07DFF40F08850E3
:101F600040F43020CDE901230390D8F89030207858
:101F7000C3F30723013B98422AD96FF0150005B03F
:101F8000BDE8F08350F80C3088684A6804F063FFBD
:101F900040EA0900E6E750F80C3088684A6804F027
:101FA0005AFF40F0007040F40030DBE750F80C308E
:101FB00088684A6804F04FFF40F08270D2E750F81A
:101FC0000C3088684A6804F046FF40F08870C9E722
:101FD00001A9FFF7F9FE237801332370A7E7C1F8C1
:101FE0009830C1F8A00001337CE74FF0FF30C6E71E
:101FF00000ED00E0247A0000191000200000F0FF3E
:10200000000008110E4A0123C2F840354FF080420B
:102010004FF08051C2F87835D1F83001082808D146
:10202000D1F83411052904D80648415C09B1C2F839
:1020300038364FF080430122C3F8802500207047D6
:1020400000E001406B7E000020B1034B800143F0B3
:1020500001031847704700BF70790000084B70B546
:10206000C31A0D4607499B100446594306484022AF
:1020700004F04CFF2B4601462046BDE8704018474F
:10208000340E0020B76DDBB64477000073B50C4CFE
:102090000C4A4023041B00930D460B460A49A4102A
:1020A00061430646094804F05CFF011E05DA30462C
:1020B0002B4602B0BDE87040184702B070BD00BFAB
:1020C000340E0020D76F0000B76DDBB644770000F8
:1020D00010B5EFF31184202383F31288BFF36F8FC1
:1020E000074A136823F00201DB07116002D40120C4
:1020F00005F0EDF984F31188BFF36F8F10BD00BFB9
:10210000840E0020002270B5012104461046FFF71E
:10211000B3FD0F4801F0C6FB0E4B984215D101F0FC
:10212000D1FB26690C49304604F069FD00280BDB21
:10213000012535642469084904F11C0004F05FFDA1
:10214000002801DBE564002070BD6FF00400FBE7B0
:10215000252200000000AD0B447A000030B4104B83
:102160000C2202FB003301460020D3E90E52986393
:10217000EFF31180202484F31288BFF36F8F1C6C5F
:1021800004F0C00444F002041C6480F31188BFF31F
:102190006F8F1DB12B46034830BC184730BC7047C9
:1021A000340E00204477000010B4EFF31180202299
:1021B00082F31288BFF36F8F18490B6843F0020453
:1021C00013F001030C601AD04FF08043D3F80C14C5
:1021D000D3F80C3413F0010311D0EFF3118182F323
:1021E0001288BFF36F8F0E4A136C03F0C00343F0E5
:1021F0000203136481F31188BFF36F8F012380F30F
:102200001188BFF36F8F23B15DF8044B0020FFF7F7
:10221000A5BF5DF8044B012001F066BB840E0020D1
:10222000340E002010B1012804D07047034B1B6C02
:102230005B0701D1FFF792BF704700BF340E00204B
:102240002DE9F8433649BFF35B8F0746012251E879
:10225000003F41E800200028F9D1BFF35B8F33B97C
:10226000304931484B60CB608A6004F0DBFC7B1E58
:10227000012B2DD8012F07D14FF08043D3F81C3408
:1022800003F00303012B23D005F002FA054608BB37
:10229000264B1B78F3B14FF080430222C3F808238A
:1022A0000646DFF88C904FF080444FF00108D4F8D8
:1022B0001824D4F81834D20315D503F00303012BE6
:1022C00001D0012F0FD125B386F31188BFF36F8F93
:1022D000BDE8F883EFF31186202383F31288BFF360
:1022E0006F8F0125DDE7304604F0A6FDD4F81835E0
:1022F000002BDCD1D4F80421002AD8D0C4F8043152
:10230000D4F80431C4F81885C9F88081C4F808806D
:10231000CDE74FF080430222C3F80423D8E700BF83
:10232000300E0020200E0020500E00201D10002036
:1023300000E100E000F1744000F5A6000A289ABF11
:10234000024B33F910006FF00F007047267D00003C
:10235000024B0B6001231360704700BFFC7A000042
:10236000004870477C7A00000268154BFF2A08BFBE
:102370004FF0FF32C3F824254268FF2A08BF4FF010
:10238000FF32C3F828258268FF2A08BF4FF0FF32CA
:10239000C3F83025C268FF2A08BF4FF0FF32C3F8E8
:1023A00034250269FF2A08BF4FF0FF32C3F83825F1
:1023B0004269FF2A08BF4FF0FF32C3F83C2570473F
:1023C0000090024038B50F4B994204460FD1EFF30D
:1023D0001180202383F31288BFF36F8F1D4623786B
:1023E00033B10023237080F31188BFF36F8F38BDA2
:1023F00004F022FDEFF3118085F31288BFF36F8F95
:10240000EDE700BF0000AD0B2DE9F04F824685B02F
:1024100088461746002A00F08E80002B00F0878047
:102420000029C0F28880CA184168C96A8A4200F24D
:102430008280C8F1000505F003059D4228BF1D46B6
:102440007A4202F0030207F0030658BF5642764272
:1024500006F003069E4228BF1E465A1B9B1B23F014
:10246000030322F003099945C8BF994602F0030B04
:10247000C8BFA2EB030BB9F1000F18D0BB1908EBD2
:10248000050249461846019305F0B4F80446014692
:10249000DAF81000FFF796FF284A94423DD1B54282
:1024A00005D0019B4A461946781904F0FBFCC5B1DA
:1024B000C5F10406A8EB0602042102A805F09AF86B
:1024C00004460146DAF81000FFF77CFF1B4B9C42E4
:1024D00023D106F108032A460DEB0301384604F028
:1024E000F8FCBBF1000F17D0082108EB05024A44A5
:1024F0000DEB010005F07EF804460146DAF8100005
:10250000FFF760FF0D4B9C4207D109EB05005A46CF
:1025100002A9384404F0DDFC084CDAF8100004F09D
:10252000D2FD204605B0BDE8F04FFFF703BF1846C7
:1025300005B0BDE8F08F6FF01500F9E70000AD0BB6
:102540002DE9F3470F46054641681E469046002A8E
:102550006FD0002B6DD0042B01D9B30769D117F0D0
:10256000030066D1002F64DBCA6ABB19934260D8AE
:1025700004F076FD0446002849D1032E1ED804211C
:102580003A460DEB010005F035F80446014628698E
:10259000FFF718FF284B9C4235D13246414601A82F
:1025A00004F097FC04213A460DEB010005F01FF8FA
:1025B000044601462869FFF705FF24E008F0604360
:1025C000B3F1005F02D118F0030F2ED0DFF868A03E
:1025D000042EB14628BF4FF004094A46414601A8DF
:1025E00004F077FC3A46494601A805F000F8044695
:1025F00001462869FFF7E6FE544504D1B6EB09060B
:10260000C8444F44E4D12046FFF794FE044601201D
:1026100004F026FD0646286904F055FD002C08BF8D
:102620003446204602B0BDE8F0873A46314640467F
:10263000BCE76FF01504F4E70000AD0B2DE9F84F8F
:102640000746D0F804800E46C1F30B031546002A56
:102650005DD0C2F30B00184359D1002957DB8B180A
:10266000D8F82C20934252D804F0FAFC04460028F3
:1026700047D1DFF8A090DFF8A0A0D8F82C30AB420B
:1026800017D104F0BAFFAB46044638692146FFF77C
:1026900099FE54452BD15E44A5EB0B05012004F0B7
:1026A000F4FC041E27DB14F00104F7D1002DE4D163
:1026B00021E0B5F5803F09D3B3B253B931460120CB
:1026C00002F094F84FF4803B0446DEE7B5F5805FF6
:1026D00009D3C6F30B0030B9314602F087F84FF446
:1026E000805B0446D1E74FF0000B4C46CDE7204617
:1026F000FFF720FE0446012004F0B2FC002C08BFC6
:102700000446386904F0DFFC2046BDE8F88F6FF01E
:102710001504F9E70400AD0B0000AD0B2DE9F047FF
:1027200043685D6B90B007460AAA0021284604F072
:10273000ACFD041E6FDB0A9B2A681979186800F04B
:1027400033FB041E67DB002201212920FFF794FAE6
:10275000D7F804803A695A49404601F0A9FFFFF7CB
:10276000E9FD041E52DB574D0FCD0AAC0FC495E8AE
:10277000030000260DF1040984E803000196AB2351
:10278000C9E901668DF804304F4BD3F82425D2B245
:102790000492D3F82825D2B20592D3F83025D2B2CC
:1027A0000692D3F83425D2B20792D3F83825D2B2A4
:1027B0000892D3F83C350AA8DBB20993FFF7D4FDA1
:1027C000012001F0EBFF04AD01462846FFF7CCFDE8
:1027D0003E4B994223D13146484604F010FC041E7A
:1027E00014DB082004F00DFF4FF0030A9F2331464D
:1027F0000AA8CDE90A66CDF81090CDF814A08DF89E
:1028000028300C9504F0FBFB041E0BDA01F0E4FF0A
:1028100008B101F0CFFF204610B0BDE8F0876FF09F
:102820000404F3E75246494608F1300004F02AFB5D
:10283000044600283ED17A68537F023B012B37D9EA
:10284000167F023E022E8CBF00260126022004F0D5
:102850001CFC002831DBC3B2C0F340008642D5D057
:1028600083F0020300260120ADF800608DF80130EE
:1028700004F00BFC041EC9DB022301210AA88DF819
:1028800000400A96CDF810D005930C968DF82810CC
:102890000B9504F0B4FB04460028B7D1012004F0E6
:1028A000F4FB041E01DBE307F8D404EAE474ADE7AB
:1028B0000126CBE76FF01204A8E70446A6E700BFA5
:1028C000F76F000030790000009002400000AD0B6F
:1028D000024B0B6001231360704700BF880E00207D
:1028E00000487047187B000010B504F07CFE034CD4
:1028F000206004F074FE6060002010BD880E00208F
:102900004FF08042D2F81015D2F8103501F01E01B8
:1029100023F01F030B4343F00103C2F81035024BB1
:1029200000221A70704700BF1C1000204FF0805327
:10293000D3F83031082B20D14FF08042D2F8101557
:10294000CB071AD5D2F8103501F01E0123F01F0372
:102950000B43C2F81035D2F808315BB1D2F810350C
:1029600023F01F030B4343F00103C2F810356FF04F
:102970008B007047024B01221A700020704700BF85
:102980001C1000202DE9F0410D46164604F027FEEC
:1029900031460746284604F09BFB28B3B5FBF7F306
:1029A00007FB135303BBB6FBF7F407FB1464DCB956
:1029B000BE4213D304F013FEDFF834800746FFF75E
:1029C000B5FF044668B9284601F00EFC98F80030BF
:1029D0000BB1FFF795FFF61B3D44F0D12046BDE853
:1029E000F0816FF08B04F9E76FF01504F6E700BF94
:1029F0001C1000202DE9F8430E46304619461746B4
:102A00001C4604F065FB30B344EA060515F00305E7
:102A100021D11CB3DFF84C906319032BA6EB0508FA
:102A200007D80F4AD2F80034DB07FBD50020BDE8F9
:102A3000F883FFF77BFF58B97B1B4046196801F00C
:102A4000F3FB99F800300BB1FFF75AFF043DE3E7C1
:102A50006FF08B00EBE76FF01500E8E72046E6E744
:102A600000E001401C100020F0B54068057B01F03B
:102A70001F0444EA4514056987B0002D64D0B2F5FF
:102A8000001F00F1100506D12146284604F09FFDE5
:102A9000002007B0F0BD01AE0027B2F5800F01970E
:102AA000776039D1B3F1007F14BF052304238DF87B
:102AB00004300023CDE904630393836823FA01F112
:102AC00011F001011AD1B2F1A07F17D104F01F0358
:102AD000620903F5E0732AD0012A3BD11F4A52F85C
:102AE0002330DB070AD40DF103063246214628467F
:102AF00001F0D8F91A4B98421CD0029603AA21463D
:102B0000284601F091F8174B984220D10122214626
:102B1000284601F02BFABBE7B3F1C06F05D0B3F143
:102B2000007F14BF01230223C1E70323BFE74FF057
:102B3000A042D4E73146284601F012FA094B9842E8
:102B4000DBD06FF00B00A4E76FF08500A1E76FF01A
:102B500015009EE751F82330FFDE00BF0003005050
:102B60000400AD0B0000AD0B38B545682B69B3B15F
:102B70001035284601F0E4F9044680B9014628469C
:102B800001F0AAF9084B98420BD108492246284681
:102B900001F082F9224605210620FFF76DF800209A
:102BA00038BD6FF00400FBE70000AD0BB12B000057
:102BB000420970B5034602D0012A17D070BD0D4EF0
:102BC000326951680029F9D003F01F0301250C6810
:102BD0009D400029F2D08A682A4002D04B683046D6
:102BE00098472CB1236821461C46F2E7024EE7E7DE
:102BF0002346F8E76C770000587700002DE9F04392
:102C0000466840F20635D006337B87B002EA0505F8
:102C100054BFC2F34010032001F01F07B5F5837FB6
:102C2000144647EA43178DF8030045D00FD8062D08
:102C300018D007D8B5B1022D40D06FF0150007B0FD
:102C4000BDE8F083B5F5807FF7D101250AE040F2B9
:102C50000222954234D0B5F5407F33D0B5F5007FE0
:102C6000EBD102250123220303FA01F12CD573686D
:102C7000C3F80815326982BB07F01F037F0929D00A
:102C8000012F77D13E4A02EB830284F48033D2F8DD
:102C90000017C3F30043C4F3404444EA430421F45F
:102CA000E16144EA800421F0070144EA05230B4373
:102CB000C2F800370020C2E70725D3E70425D1E793
:102CC0000525CFE70325CDE7630344BF7368C3F849
:102CD0000C15CFE74FF0A042D5E710360DF10202F8
:102CE0003946304601F0DEF814F4403F80460CD1FE
:102CF0003946304604F069FC224B9845DAD19DF8FC
:102D00000210304601F026F9D4E701AB4FF000097C
:102D100003AA39463046CDE90439CDE90199CDF809
:102D20000C9000F081FF174B984286D114F40033C9
:102D300015D09DF803308DF80E3084F48034C4F340
:102D400000444B4603AA394630468DF80C508DF8A6
:102D50000D4001F023F80B4B9842CDD06DE7CDE943
:102D6000043303AA0DF1030339463046039300F000
:102D70005BFFF0E703F5E07352F82330FFDE00BF9E
:102D8000000300500000AD0B036803F01F025B0955
:102D9000026004D0012B034818BF002070474FF099
:102DA000A0407047000300502DE9F04FDFF888A1E4
:102DB000DFF888B185B01546804600EB810140F20E
:102DC000FF19414503D1002005B0BDE8F08FD8F8C8
:102DD00000305804C3F3C322C3F3080400F1A680F3
:102DE0001B0E1AF802604C4508BF4FF0FF34222B2F
:102DF00000F29F80DFE803F0122229362C32369D44
:102E00009D9D9D39409D9D9D9D9D9D9D9D9D437E2C
:102E100081849D9D9D878B8E91949700C5F80C456C
:102E2000621C64D003A80394FFF7AEFF039B012745
:102E300007FA03F3C0F808353A4635E0C5F81445FB
:102E40000027631C53D000222EE0C5F80845E7E7B1
:102E5000C5F808450027601C1CD148E0C5F80C45A2
:102E60000127F8E7C5F81045EAE7C5F80845002E40
:102E7000E6D100270626E4E7C5F80C45F7E7C5F8D4
:102E80006045B8F80230671C03F001032FD0002B17
:102E9000C8D1012703A80394FFF776FF039B012203
:102EA00002FA03F3C0F80C35D8F80030019303F4AC
:102EB0000040002818BF002203A8009218BF012775
:102EC0000394FFF761FF039C019B009A00EB8400D1
:102ED000C3F3412CD0F80047330243EA8C03134379
:102EE00004EA0B04234343EA4703C0F8003708F120
:102EF000040866E7C5F86445C3E7C5F86845C0E758
:102F0000C5F86C45BDE7C5F82445012799E7C5F824
:102F1000284585E7C5F83045F7E7C5F83445F4E7B7
:102F2000C5F83845F1E7C5F83C4579E76FF015007D
:102F30004AE76FF0850047E7C07E0000F0F8FCFF2D
:102F400070B5012383400E4ABFF35B8FDC4352E828
:102F5000001F01EA040542E80056002EF7D1BFF336
:102F60005B8F4FF4803282400648C0F80823BFF3DD
:102F70005F8FBFF36F8F0B4214BF0120002070BD25
:102F8000AC0E00200010014070B40E49D1E90034AD
:102F9000D01AC31844F1000422F07F46C1E900347E
:102FA000A6F50013B3F5400F09D2074B1B681A0AA8
:102FB0001B069C19054B42F10005C3E9004570BC96
:102FC00001F07EBD20010020B00E0020280100206D
:102FD00011B3BFF35B8F0123104A834052E800CF47
:102FE0004CEA030C42E800C10029F7D1BFF35B8F24
:102FF0000B4A4FF480338340C2F80433094BBFF3CC
:103000005B8F1B68BFF35B8FC340DB0742BF064B80
:103010004FF40032C3F80021704700BFAC0E00200F
:1030200000100140A80E002000E100E00D4B1868E0
:10303000010A0006BFF35F8F0B4BD3F80435181855
:1030400041F10001B3F5801F0AD2084BD3E90023F8
:10305000904271EB030303D210F1807041F1000143
:10306000704700BFB00E0020001001402801002072
:103070002DE9F04F85B016461F469DF840A0044646
:10308000FFF75EFF0190FFF7D1FFB04271EB07033E
:1030900054D23E4B301A67EB0101984271F10001A6
:1030A0004FD23B4B03EB0413D3E902239F4208BFEB
:1030B00096425ED037494FF4803804F1500508FA43
:1030C00004F8AD00C1F848832046ADB204F0F0F832
:1030D00026F07F4B05F1804504F5A87305F588358A
:1030E000DC464FF003090293029A2CF07F4341F82B
:1030F0002230C1F84483D1F80435274A6FF002002A
:10310000C01A604420F07F40904232D9286868B1EC
:10311000D1F804350393A3EB0B0020F07F40B0F50A
:10312000000F26D9204604F0C3F8039BBAF1000F24
:1031300007D109EB030C09F10109D5E7BAF1000F3A
:1031400009D06FF0150520460199FFF741FF284689
:1031500005B0BDE8F08F0123104ABFF35B8FA34099
:1031600052E8000F184342E800010029F8D1BFF3EC
:103170005B8F07490E98230101EB0412C8500F9B87
:103180005360C2E902670025DDE700BF010080004F
:103190001001002000100140FDFF7F00A80E00205C
:1031A0007FB51C4C1C4BC4F80833C4F848331B4B88
:1031B00000254FF0FF304FF0FF31C4F80855C3E948
:1031C00002014FF48033C4F80433154B02264FF448
:1031D00000320121C4F804631120C3F880212A467B
:1031E000FEF74AFD1120FEF717FD0E4A0123A360EA
:1031F000236013600C4B0D4A0093CDE90155002369
:103200002846FFF735FF3046FFF71AF8284604B086
:1032100070BD00BF0010014003000F00100100202E
:1032200000E100E0AC0E0020892F0000FFFF7F00CE
:103230002DE9F34D2D4CD4F8043399070BD5D4F870
:10324000043143B12A4A0023C4F80431D4F80431CC
:10325000136801331360D4F80433DA0341D5BFF3A4
:103260005B8F244B53E8002F22F0010143E800104C
:103270000028F7D1BFF35B8FD30702D4D4F84031D5
:103280007BB30025C4F84051D4F84031FFF7CEFE9F
:10329000EFF31182202383F31288BFF36F8F164B55
:1032A000D3E90267B042B9411ED34FF0FF3A4FF065
:1032B000FF3BC3E902ABD3E900181D604FF4803334
:1032C000C4F84833C4F84051D4F8403182F311882F
:1032D000BFF36F8F29B1CDF8008032463B46002006
:1032E000884702B0BDE8F08D2946EFE700100140A5
:1032F000B00E0020A80E00201001002030B5431CA5
:10330000124C85B005D08442A8BF0446012CB8BF3A
:103310000124FFF78BFE0E4B0C4DD3E90013401A2E
:10332000B0F5000F10D22218AA4228BF2A46521820
:103330004FF0000007490091CDE9010043F100037F
:10334000FFF796FE05B030BD2A46F0E7FFFF7F008D
:1033500020010020892F000008B5FFF767FE024B0F
:103360001B68C01A08BD00BF2001002010B5084C22
:10337000012363601120FEF75DFC064BC4F808339F
:10338000C4F84833044B4FF40032C3F8802110BD19
:103390000010014003000F0000E100E030B50C49CF
:1033A0000C4D0B680246002405EB0310D0F808080A
:1033B000C0B218B904B10B60002007E00133072B3D
:1033C0004FF00104F0D90B606FF01B00136030BDAB
:1033D000B40E002000E0014030B5816885B010399E
:1033E00021F00704054603F0D7FC10220146684689
:1033F00003F07AFD07491022684603F06AFD1023A6
:103400006A462146284603F091FC003818BF012087
:1034100005B030BD3C7D000030B50D46816887B0F9
:10342000102302AA1039044603F06BFC002802DACC
:10343000012007B030BD102202A9204603F0A5FFED
:1034400000283AD11E49102202A803F01BFD0028D3
:103450000CBF012302232B70204603F082FF0123BF
:1034600001460DF10702204603F04BFC0028DFDB8C
:103470009DF8073003F00F021B096A702B710122BF
:103480000DF10701204603F080FF10B96B78042B83
:1034900003D901236B7000232B71A268183A22F024
:1034A0000702083AA91C204603F082FF0028BFD17A
:1034B000E91C204603F0D5FFBBE70323CBE700BFA1
:1034C0003C7D00007FB5264D4400694655F8240038
:1034D00003F0CDFF002835D1013402A955F82400AE
:1034E00003F0C5FF01282BD103238DF808308DF898
:1034F0000B309DF800509DF808601A4A002410789F
:10350000294603F034FF18B35078314603F02FFFFB
:10351000F0B19378042B03D09DF80310994217D192
:10352000D378042B03D09DF80B10994210D1137956
:10353000042B09D15079831E022B03D804B070BD2F
:103540000028D6D0FF20F9E79DF802109942F1D06B
:103550000134032C02F10602D1D10120EEE700BFB5
:10356000747B0000C87E00004FF08053D3F83021F8
:10357000082A06D1D3F83431052B02D8024AD05C90
:1035800070470020704700BFE07E0000024AD2F87A
:103590000034002BFBD0704700E0014010B54FF025
:1035A0008053D3F83021082A4ED14FF080420021B9
:1035B000C2F80C11C2F81011C2F8381502F54042D9
:1035C000D3F80414C2F82015D3F80814C2F824154F
:1035D000D3F80C14C2F82815D3F81014C2F82C151F
:1035E000D3F81414C2F83015D3F81814C2F83415EF
:1035F000D3F81C14C2F84015D3F82014C2F84415AF
:10360000D3F82414C2F84815D3F82814C2F84C157E
:10361000D3F82C14C2F85015D3F83014C2F854154E
:10362000D3F83414C2F86015D3F83814C2F864150E
:10363000D3F83C14C2F86815D3F84014C2F86C15DE
:10364000D3F84434C2F87035FFF78EFF18B1414B00
:10365000414AC3F88C26FFF787FF18B13F4BFB2286
:10366000C3F81825FFF780FF70B14FF080414FF08D
:103670008053D1F8E42ED3F8583222F00F0203F031
:103680000F031343C1F8E43EFFF76EFF20B1344B44
:103690004FF40072C3F840264FF08053D3F8303116
:1036A000082B09D14FF08043D3F80024D20744BF40
:1036B0006FF00102C3F800242A4AD2F8883043F49C
:1036C0007003C2F88830BFF34F8FBFF36F8F4FF096
:1036D0008053D3F83021082A0ED1D3F83431052B8A
:1036E00002D8214AD35C3BB14FF01023D3F8082213
:1036F0004FF08043C3F858254FF01023D3F8002231
:10370000002A03DBD3F80432002B22DA1749012305
:103710004FF01020C1F804351224FFF737FFC0F82E
:103720000042FFF733FFC0F80442FFF72FFF0023EA
:10373000C1F80435FFF72AFFBFF34F8F09490C4B3F
:10374000CA6802F4E0621343CB60BFF34F8F00BF3F
:10375000FDE710BD005000404881030000F000402C
:103760000090024000ED00E0DA7E000000E0014041
:103770000400FA0530B50468CCB1BFF35B8FB4FA2E
:1037800084F3C3F11F03DBB201229A4024EA020250
:1037900050E8005FA54204D140E8002CBCF1000FC6
:1037A000F6D1BFF35B8FE6D102480B7030BD024803
:1037B000FCE700BF0000AD0B0200AD0B10B50368C5
:1037C000CB40DB0714D401238B400268BFF35B8F2F
:1037D00043EA020150E8004F944204D140E8001C43
:1037E000BCF1000FF6D1BFF35B8FEED1014810BDE5
:1037F0000148FCE70000AD0B0400AD0BF7B5044633
:1038000018B1012822D003B0F0BD4FF0804302224E
:10381000C3F808230122DA60C3F80401D3F80431A5
:10382000054601238DF8073042F210774FF08046AD
:10383000CCB1012CE7D1D6F80C34C3F300433DB32F
:10384000D6F80C2402F001022A7016E04FF08043F3
:103850000022C3F808035860C3F80021D3F80031F0
:103860000DF10705DDE7D6F81834C3F300437DB149
:10387000D6F8182402F003022A601BB19DF8073025
:10388000012B07D0012CBED1054B00225A71BAE79B
:10389000002BF7D0012003F018FE013FC8D1F1E75B
:1038A000B80E0020044B1A7922B9012218609A80C0
:1038B0000248704702487047B80E00200000AD0B68
:1038C0000C00AD0B08B5074B1B682BB10020FEF7B1
:1038D000C5F908B9FEF7A0F94FF080430022C3F8FC
:1038E000182508BDB80E002010B510B1012843D02E
:1038F00010BD4FF08043D3F81814D3F81824C80330
:1039000021D502F00303012B04D013B10020FFF7EF
:1039100075FF00234FF080420220C2F818350822BC
:103920004FF4827303F180430021196002F1804259
:103930001C6801241460154A12680AB34FF08043D2
:10394000C3F80403D4E7D3F81424D107E1D5D3F89E
:103950001C249207DAD40D4A12681AB10222C3F865
:103960000423C5E7D3F80421002AFBD00022C3F8C2
:103970000421D3F80431BBE700224FF48073D1E770
:103980001A68002AFCD019601B68B1E7B80E002045
:1039900010B54FF08043D3F800216AB10022C3F87C
:1039A0000021D3F800210122C3F80823114B5879D4
:1039B00010B95A711B6898474FF08043D3F804211F
:1039C00072B10022C3F80421D3F80421D3F81824DB
:1039D000D3F81824920704D10122C3F818259A605D
:1039E00010BD0222C3F80823024BBDE810401B683B
:1039F00001201847B80E0020036803F01F025B097E
:103A0000026004D0012B034818BF002070474FF01C
:103A1000A040704700030050034A430900F01F0014
:103A2000D35C1844C0B27047E67E000070B505460E
:103A3000FFF7F2FF0C4C08300E4634F81030DA0570
:103A400008D5C3F3432304EBC302284654F83330AC
:103A500052689847A3682BB1E26831462846BDE812
:103A60007040184770BD00BF1400002008B5FFF774
:103A7000D3FF034B083033F81000400B08BD00BFE4
:103A80001400002008B5FFF7C7FF034B083033F8D8
:103A90001000C0F3400008BD1400002008B5FFF777
:103AA000BBFF034B083033F81000C0F3401008BDD3
:103AB00014000020034611F0010010B5CCB20DD166
:103AC000A207C4F3400012D5094AD2F82005586075
:103AD000C2F82005003818BF012008E04FF0A041CF
:103AE000D1F820251A60C1F82025002AE8D010BDA1
:103AF0000003005010B5FFF78FFF124A083032F86C
:103B00001030D9051CD5C3F3432123F4F85322F810
:103B1000103002F10E04002034F8023F13F4807FCD
:103B200003D0C3F3432399420AD001303028F3D1A4
:103B3000002342F831300448BDE81040FFF73EBE94
:103B400010BD00BF140000208C000020F0B5054619
:103B500000200446012607468C420BD1114BD3F8B6
:103B60007C2132B10022C3F87C21D3F87C3140F0B3
:103B70000040F0BDE3B29B0003F580729B0806FA9B
:103B800003F31D420BD002F1804202F5C042D2F88D
:103B900000C0BCF1000F02D0176012681843013456
:103BA000DAE700BF00600040F7B506460846FFF7B9
:103BB00033FF194F00F108050C4637F81530DB07C5
:103BC00027D5304603F0DDFC2046FFF767FF40B104
:103BD0002046FFF74BFF316800F5A270002341F843
:103BE00020302046FFF786FF002301A827F8153074
:103BF0000194FFF701FF019B00EB8300074BD0F816
:103C00000027134043F00203C0F80037044803B014
:103C1000F0BD0448FBE700BF14000020F0F8FCFFF3
:103C20000000AD0B0400AD0B2DE9FF4116468046A8
:103C30000846FFF7F1FE0D463168044609B32846F1
:103C4000FFF720FF18B12846FFF728FF10BB00231D
:103C5000CDE900338DF80E308DF80F300DF10F02E5
:103C60000B4628460DF10E0103F033FC474A04F1E0
:103C7000080132F8113023F0020343F0010322F867
:103C80001130736863B328461F785968FFF7FAFE4E
:103C900010B1D1B13E4826E03C4A04F1080032F8A8
:103CA000103023F02003DB04DB0C22F8103061B16C
:103CB000032FEFD87168496891F800C0D8F8001058
:103CC000A7B90CF5A27C41F82C70304A04F1080128
:103CD00032F8113023F01C0343EA870322F8113035
:103CE000B3684BBB2B4804B0BDE8F08101EB8C01FD
:103CF00043EA4C33D1F810E52EF0030EC1F810E57D
:103D0000D8F8001001EB8C0E43F02003DEF81015FC
:103D100022F8103021F44F3121F44071CEF8101503
:103D20002902DEF8108501F47C5141EA074141EA9D
:103D30000801CEF81015C8E7D3E900672846FFF759
:103D4000D9FE002ECED0114DD5E90023964203D1E5
:103D50009F4201D1002209E00F480DF10F01FFF74A
:103D600009FD0C4B9842BED19DF80F2045F83260FA
:103D700005EBC20308345F6035F8143043EA422390
:103D800043F4807325F81430ACE700BF1400002022
:103D90000400AD0B0000AD0B8C0000202DE9F043BA
:103DA0000C4685B08046204611461E46FFF734FE7D
:103DB000054629B32046FFF765FE18B92046FFF7F0
:103DC0006DFE18BB314F05F1080937F8193013F0B3
:103DD0001C0F02D04B78012B18D001238DF80F3027
:103DE0000023CDE900134A1C8B1C20460DF10F0166
:103DF00003F06FFB37F8193043F0030327F819304D
:103E0000002E41D02046FFF73DFE18B9204805B0EE
:103E1000BDE8F08396F800C0D8F800301B4F0CF5D1
:103E2000A272002143F8221005F1080237F812109F
:103E300021F02001C904C90C27F8121075781DB3B0
:103E4000D8F80000B67800EB8C002D04D0F81035BF
:103E500023F4991323F4F853C0F81035230203F424
:103E60007C5305F440353605D0F810E52B4306F4B5
:103E7000801641EA4C31334341F0200143EA0E03FE
:103E800027F81210C0F810350248C0E714000020CF
:103E90000400AD0B0000AD0B014BC3E902127047EB
:103EA0001400002010B508461446FFF7F7FD50B186
:103EB0000846FFF7B1FD054B083033F810300448D1
:103EC0005B0B237010BD0348FCE700BF140000200B
:103ED0000000AD0B0400AD0B70B5164D95F8804099
:103EE00006462CBB2146602205F1100002F0FCFFC3
:103EF00030682E6F21468E420ED10023C0F87C31EF
:103F0000D0F87C3140F30730FDF786FE01230A48E4
:103F100085F88030AB6770BDCBB29B0003F5807233
:103F20007C2B08BF845001F1010108BF8358E2E7F0
:103F30000248F0E7140000200000AD0B0C00AD0BB0
:103F4000034B93F88000003818BF0120704700BF72
:103F5000140000200148FFF731BC00BF880000209A
:103F60000148FFF707BC00BF8800002073B5036855
:103F70001646D3F80423002AA8BF4FF00042054696
:103F8000A8BFC3F8042308460C46FFF787FD00B31B
:103F90000846FFF777FD0146D8B92046FFF766FDD2
:103FA00004B2A40004F58072034628688150296891
:103FB00082582144D1F8102542F00102C1F81025A1
:103FC0002EB12968012202FA03F3C1F8043302B0CA
:103FD00070BD2046FFF720FD0F4B083033F810303E
:103FE000C3F38203042B12D0052B12D001A8019435
:103FF000FFF702FD019AD0F81035D34003F001031A
:10400000991C204602B0BDE8704003F0ABBA032112
:10401000F7E70221F5E700BF140000202DE9F04F7B
:10402000674BDFF8A881D3F80403D8F87010C0B24A
:1040300089B040F00040FFF789FD051E2EDAC24628
:1040400000235AF87C1F06A8CDE90633FFF732FD9E
:104050005C4B02930DF118090023029A019312F8A8
:10406000013B0292DA0803F007031AF8022022FA51
:1040700003F3DA071AD4019B09F10409A3B1D8F8B4
:1040800070104FF00040FFF761FDD8F87C1006A8D3
:10409000FFF710FD0028DBD125F000450124002D9D
:1040A00075D109B0BDE8F08F0123D6E7019B464AE0
:1040B00013440393D9F80060002EDCD0039B96FADA
:1040C000A6F61C78B6FA86F646EA44142046FFF7B0
:1040D000A3FCF2080830012338F8107019F8020028
:1040E000059406F0070603FA06F620EA060009F82A
:1040F000020005A8FFF780FC059A02F5E072B908F6
:1041000050F82260C7F3820B4B075F46C6F30146A7
:1041100024D520465946FFF789FC05A80594FFF7EA
:104120006BFC059B03F5E073F6B250F82330C3F344
:1041300001439E4207D10021204603F013FA314685
:10414000204603F00FFA05A80594FFF755FC059BE0
:10415000012202FA03F3C0F82035ABE7022E0CBFB0
:1041600003210221204603F0FDF9BBF1030F04D027
:10417000022E07D1BBF1010FE5D139462046FFF7EA
:1041800055FCE0E7032EDED1BBF1020FF4E795FA10
:10419000A5F3B3FA83F304FA03F29B0003F180431F
:1041A00003F5C04325EA0205D3F81005D3F810152E
:1041B000C0F30520C1F30141FFF738FC6FE700BFF2
:1041C00000600040F67E0000F67E00001400002033
:1041D000044AD2F80034DB07FBD50160BFF35F8FE0
:1041E000704700BF00E001404FF080531A69B0FBF8
:1041F000F2F302FB130373B9084B0222C3F8042540
:10420000C3F80805D3F80024D207FBD500220448E0
:10421000C3F8042570470348704700BF00E0014021
:104220000000AD0B0A00AD0B10B5054C0123C4F81E
:104230000435FFF7CDFF0023C4F8043510BD00BFDF
:1042400000E0014070B5104D6C6B9CB14FF47A7377
:104250005C430A23B4FBF3F40C4ED6F8003163B987
:1042600095F839304BB90A2003F02FF9013CF4D10D
:10427000074870BD4CF25034EEE795F83930002B0A
:10428000F6D10448F5E700BFC00E002000900240C0
:104290000700AD0B0000AD0B094B10B50022012447
:1042A000C3F80045C3F800211C6038B1FFF7CAFF0E
:1042B000044B984203D1044B83F83840014810BDA9
:1042C000009002400000AD0BC00E002070B500F061
:1042D0006044B4F1005F5DD184075BD12F4C94F84A
:1042E0003050012D05D09D4256D194F83850002D04
:1042F00052D02B4D022B0BBFC5F81025C5F8042555
:10430000C5F81405C5F808050CBFC5F81815C5F89B
:104310000C154FF0000684F8396026680CBF08259C
:104320000425BEB994F838306BB11D4B05F18045BA
:1043300005F524350022C3F8002101232B60BDE8D8
:104340007040FFF77FBF0120FFF7A6FF154B984293
:10435000EBD170BDA66826B1E0606161E2611248F0
:10436000F7E7A2610E4A84F830300123A060216192
:10437000C2F80061C2F8043394F8382002F0FF005C
:1043800012B9FFF789FFEAE705F1804505F5243505
:104390002B60E4E70548DCE70548DAE7C00E0020BB
:1043A000009002400700AD0B0000AD0B0A00AD0B02
:1043B0000B00AD0B084B9A685A621A699A629A69A7
:1043C000DA62DA689A6032B15A691A61DA699A6116
:1043D0000022DA6070477047C00E002000F01F0313
:1043E00040090FD0012810D10B4A02EB83020B4B7E
:1043F000D2F80007034043EA012343F00203C2F866
:10440000003770474FF0A042EFE7002203F5E0735A
:1044100052F82330FFDE00BF00030050F0F8FCFF2D
:1044200010B50E4B0238D3F83C26D3F8383607289F
:1044300013D8DFE800F0110F0D0B0A080604100E68
:10444000C871100C8871100A48710A711A0ECA706E
:104450001A0C8A701A0A4A700B7010BD0090024044
:10446000023807281FD8DFE800F02927251123216B
:104470001F04CB791B068A7943EA02434A7943EA4F
:1044800002230A7913430E4AC2F83C36CB781B0646
:104490008A7843EA02434A7843EA02230A781343BC
:1044A000074AC2F8383670470023E4E70023E5E7FF
:1044B0000023E6E70023EBE70023ECE70023EDE72A
:1044C000009002400268154BFF2A08BF4FF0FF32F0
:1044D000C3F824254268FF2A08BF4FF0FF32C3F813
:1044E00028258268FF2A08BF4FF0FF32C3F8302525
:1044F000C268FF2A08BF4FF0FF32C3F834250269B3
:10450000FF2A08BF4FF0FF32C3F838254269FF2A5F
:1045100008BF4FF0FF32C3F83C25704700900240BF
:104520000A4B002283F83820094B01214FF08050BC
:10453000C3F808131961D0F83001082808BF59657D
:10454000C3F80025C3F80021704700BFC00E00204B
:104550000090024030B5194D0FCD8DB006AC0FC4A0
:1045600095E8030084E803001549D1F82435DBB24F
:104570000093D1F82835DBB20193D1F83035DBB2A6
:104580000293D1F83435DBB20393D1F83835DBB27E
:104590000493D1F83C3506A8DBB20593FFF792FFF0
:1045A0000023C1F8003101230B60D1F80031002B4A
:1045B000FBD06846FFF786FF0DB030BD487900009C
:1045C0000090024070B590F82930044613B190F87D
:1045D0002A204ABB6068FF2860D0A268FF2A5DD00D
:1045E000E268FF2A5AD02269FF2A57D0B3B90321C3
:1045F000FFF7F4FEA068FFF7F1FEE068FFF7EEFEBC
:104600002069FFF7EBFE6069FF2801D0FFF7E6FEA7
:10461000A069FF2802D00321FFF7E0FE94F82A30BA
:1046200013B9201DFFF74EFF1D4E636A73631D4DC6
:1046300094F8293086F83A300123C5F80833FFF79B
:1046400089FF2368C5F84035A37F617F227F9B01E6
:1046500043EAC1031343E27F43EAC213C5F844357A
:10466000D5F8002694F8203022F07F4222F0FF0295
:10467000134394F8212043EA026394F8222043EA8A
:10468000426394F8232043EA0273C5F80036336886
:1046900013B12920FDF7C0FA034870BD0348FCE7B9
:1046A000C00E0020009002400000AD0B0400AD0BD6
:1046B00038B50C4C94F8305095B9C4E9001248B99B
:1046C0000023C4E902330122074884F8302084F82B
:1046D000383038BDFFF776FF034B9842F9D1EFE74A
:1046E0000248F6E7C00E00200000AD0B0C00AD0B39
:1046F0002DE9F843DFF8A090074699F8300001282B
:10470000884614463DD199F838301F4E6BB31F4D83
:104710000123C5F80833FFF71DFFB8F1000F2BD1B7
:104720004FF0000889F83980C5F80081BB787A78A5
:104730001B0343EA02233A781343FA7843EA4233ED
:104740003A7943EA82337A7943EAC233C5F8343698
:10475000FFF778FDB0420CD0C5F800811CB1787825
:104760002146FFF75DFE0A4804E0FFF795FDB042E1
:10477000CDD10548BDE8F88378784146FFF770FE53
:10478000CEE70448F6E700BF0700AD0B00900240FB
:104790000000AD0B0B00AD0BC00E0020034B93F8D7
:1047A00038300BB9FFF778BD01487047C00E0020C4
:1047B0000C00AD0B08B5054B93F83030012B03D13D
:1047C000FFF7AEFE024808BD0248FCE7C00E00201D
:1047D0000000AD0B0B00AD0B034B93F8300000381D
:1047E00018BF0120704700BFC00E002038B58B07EE
:1047F00035D11D4B1D681DB193F83020012A30D1F1
:104800001A4C0022C4F81C15C4F8200583F839207E
:1048100095B993F8383043B10023C4F8003101232F
:10482000E360BDE83840FFF70DBD0120FFF734FD20
:104830000F4B9842F0D138BD042183F83010C4F8F2
:1048400000210122C4F8042393F8383003F0FF005C
:104850001BB9FFF721FD0748EDE7E260FBE70648DB
:10486000E9E70648E7E700BFC00E002000900240DD
:104870000700AD0B0000AD0B0A00AD0B0B00AD0B3C
:1048800010B5224BD3F8002192B1214C0022C3F87D
:10489000002194F8381094F8302071B90121032ACE
:1048A00084F8381005D0042A05D0022A00D1996076
:1048B00010BD5960FCE7D960FAE7032A19D0042A31
:1048C00019D0022A04D1012384F82030FFF772FDA9
:1048D000A36813B9012384F8303094F8393003F019
:1048E000FF0013B9D4E900319847002384F8203041
:1048F000DEE70223E8E7032284F82020D3F81C2512
:104900006262D3F8203584F82830E1E70090024055
:10491000C00E002038B5094B53F82040013053F841
:104920002050A54200D838BD636823B1204602F06C
:1049300092FE0834F5E723689847FAE77C7B00008D
:1049400008B50A4B012203201A70FFF7E3FFFCF7BA
:1049500075FF02F09CFE0420FFF7DCFFFBF748FD2B
:10496000034A137B23F00103137308BD1D100020BD
:104970003001002008B50348034A0021121A02F052
:1049800082FE08BD100100202010002008B5002084
:10499000FFF7C0FF184B83F30888184C636943F492
:1049A000007363610025E02384F82230E5772576E3
:1049B0006576A57684F82050636A43F4E023636249
:1049C00084F82350FDF794F8FDF7CEF94FF0FF334C
:1049D000A362E362FDF762FAFDF7EAF902F015FE61
:1049E0000120FFF797FF0220FFF794FF04482B46B2
:1049F0002A462946FDF79CF98018002000ED00E0CA
:104A00004149000008B50648064A0749121A02F053
:104A10003CFEBDE80840054A0549064802F035BE9F
:104A2000000000200A010020F87E000000000000C5
:104A3000F87E000000000020034B1B680BB9FEF756
:104A40008BBC0020704700BFFC0E002030B570B159
:104A50000B4B5B6898420AD0036843B1D3E9042149
:104A6000D0E90445121941EB0501C3E90421D0E95D
:104A7000003213605A600023C0E9003330BD00BF2C
:104A80009800002010B50D4B1C689C4208BF002404
:104A9000FFF7D2FF74B1D4E904321B1A62EBE07263
:104AA000B3F1004F72F1000104DA002AACBF1846DE
:104AB000002010BD6FF00040FBE700BF9800002011
:104AC0002DE9F84FEFF31185202383F31288BFF30C
:104AD0006F8FDFF8A880274F274E3860D8F8000086
:104AE0004FF0000A404508BF00204FF0000B3B6824
:104AF000D6E9001E4FEAE37C50B1D0E90442A3425C
:104B00007CEB020916DAE41A62EB0C02C0E90442FB
:104B10005B184EEB0C020024C6E900323C60FFF744
:104B2000B1FF2146FEF7EAFB85F31188BFF36F8FD3
:104B3000BDE8F88F61184EEBE473C0E904ABC6E939
:104B40000013FFF783FF85F31188BFF36F8F83682E
:104B50009847EFF31185202383F31288BFF36F8FFB
:104B60003B68D8F800001B1B3B60404508BF002095
:104B7000BDE700BFFC0E0020B0010020980000201F
:104B800010B50A4C23681BB101232360002010BD1F
:104B900000F048F80028F7D00138062803D8044B65
:104BA00053F8200010BD034810BD00BF000F0020C7
:104BB000947B0000FE8FFFFFBFF34F8F0549064B2C
:104BC000CA6802F4E0621343CB60BFF34F8F00BFAB
:104BD000FDE700BF00ED00E00400FA0510B40A4B49
:104BE0000A490B4C4FF0FE32C3F800244968C3F861
:104BF0000424C3F80824C3F80C240023C4F80035A7
:104C00005DF8044B084700BF00B00250A000002030
:104C100000A00250D0E90012014BC3E90012704716
:104C2000A000002038B500F02FF820B1032400F0D8
:104C300063F8204638BD00F031F898B900F0ACF8C0
:104C400098B90F4DD5F828391B0EF02B08D1D5F89F
:104C5000242A0C4B9A420AD0072400F017F8E6E702
:104C60000624FAE70424204638BD0024F5E7012095
:104C700000F092F804460028F7D1C5F80C0AD8E7EE
:104C800000B002500000E020002070470020704774
:104C9000014BC3F8040A704700B0025010B5114828
:104CA00000F048F800B110BD0F4800F043F80028AC
:104CB000F9D10E4C204600F03DF80028F3D10C4B02
:104CC0000C481C6000F036F801460028EBD100F0DB
:104CD0002DF8044608B1204610BD00F03FF82046EC
:104CE000FAE700BFB8000020B4000020B0000020A8
:104CF000A8000020AC00002008B5084800F024F807
:104D0000074800F021F8074800F01EF8064800F0B8
:104D10001BF8BDE8084000F00BB800BFB800002049
:104D2000B4000020B0000020AC000020002070473C
:104D3000704700BF08B5034B02681B6810689847AE
:104D4000002008BDD000002008B5034B02685B6856
:104D500010689847002008BDD000002070B5094CAD
:104D6000094D2069AB68984718B1084B08485B6843
:104D70009847084AEB68206900211160BDE870403F
:104D8000184700BFBC000020D0000020A000002079
:104D9000B07B0000040F0020F8B51A4D1A4E0446EF
:104DA000B26828699047E8B9184F3B684CB1A3B185
:104DB000012B19D0013B3B602869F368984700201C
:104DC000F8BD43B9124A0121C2F800151149D1F8C2
:104DD0001029002AFBD101333B60F368286998470A
:104DE0000020F8BD0C48F8BD0A4AD2F81039002B53
:104DF000FBD1074A6FF07E40C2F80035FFF748FF4D
:104E00003B68D7E7BC000020D0000020040F002042
:104E100000A0025000B00250E98FFFFF10B5044619
:104E200050B1636813F0685F05D0064A934202D020
:104E300000232360626010BD034B04485B68984701
:104E4000EFE700BF2C5F5CA9A0000020D07B000032
:104E5000C8B143680D4A934213D013F0685F0ED077
:104E6000012350E8002F194640E8001C9CF0000F79
:104E7000F7D1012AF5D0BFF35F8F002070470448B7
:104E80007047044870476FF4E04070472C5F5CA99E
:104E9000E98FFFFFEA8FFFFF80B14368094A934221
:104EA0000AD013F0685F05D0BFF35F8F0023036063
:104EB0001846704704487047044870476FF4E04054
:104EC000704700BF2C5F5CA9E98FFFFFEA8FFFFFEF
:104ED00010B5044620B1044B63600022226010BD6F
:104EE0000248FFF77BFEF6E73A00003AF87B000045
:104EF00030B10268034B04489A4208BF0020704753
:104F000002487047DD55AABB8208F0007108F00026
:104F100038B50D460446B0B1A0220021043002F09D
:104F2000D6FB95B10822294604F1640002F0D5FBB6
:104F3000082205F1200104F1840002F0CEFB044BAD
:104F40002360002038BD0348FCE70348FAE700BFB0
:104F5000DD55AABB7108F0008308F0002DE9F74386
:104F600005460E4699461146FFF7C2FF0446002843
:104F700040F08480002E00F08580002900F08480BD
:104F8000B9F1200F40F0828005F14404082205F1B8
:104F90000408204602F0A1FB05F12407082231464F
:104FA000404602F09AFB06F120010822384602F042
:104FB00094FB02A94FF4807041F8049D02F081FB3C
:104FC000002865D1334A4FF4807313600121936048
:104FD0000823314A00F02EFB0121084605232F4A01
:104FE00000F028FB0823424601211C2000F022FB90
:104FF00008233A460121032000F01CFB2246082327
:105000000121022000F016FB0823254A01211A2065
:1050100000F010FB0523234A01211B2000F00AFBAE
:105020000823214A0121142000F004FB08231F4A11
:105030000121152000F0FEFA082305F16402012188
:10504000162000F0F7FA082305F184020121172049
:1050500000F0F0FA0823164A01210B2000F0EAFACA
:1050600000F044FB0446019800F0D2FA114B002CEA
:1050700018BF1C46A421284602F02BFB204603B093
:10508000BDE8F0830C4CF9E70C4CF7E70C4CF5E766
:10509000084CEFE790B002505C7C0000D47C00002C
:1050A0001C7C0000C07C0000807C0000A07C000014
:1050B0003C7C00008408F0007608F0008008F000D6
:1050C0008108F0000C4BC2691A60826943F8042C15
:1050D000426943F8082C026943F80C2CC26843F873
:1050E000102C826843F8142C426843F8182C02688C
:1050F00043F81C2C704700BF5CB602500C4B1B6879
:10510000C3610C4B1B6883610B4B1B6843610B4BEA
:105110001B6803610A4B1B68C3600A4B1B688360F2
:10512000094B1B684360094B1B680360704700BF55
:105130005CB6025058B6025054B6025050B60250F7
:105140004CB6025048B6025044B6025040B6025027
:1051500030B10268034B04489A4208BF00207047F0
:1051600002487047DD55AABB0202F0000002F000C1
:1051700038B5044668B1051D7021284602F0A9FA29
:1051800028462022044902F0A0FA044B23600020A4
:1051900038BD0348FCE700BFE87C0000DD55AABB32
:1051A0000002F0002DE9F043284B04460E46154658
:1051B0000FCB85B06F4687E80F002DB94FF000097F
:1051C000484605B0BDE8F0832046FFF7C1FF8146A1
:1051D0000028F5D1231D0193636AA3BB236F8BB114
:1051E000C3F14008A84528BFA84604F13000314665
:1051F0001844424602F069FA236F43444644236749
:10520000A5EB0805226F402A06D104F1300138468B
:1052100000F0AEFB0023236705F03F0835F03F05A3
:1052200005D031462A46384600F0A2FB2E44B8F19C
:10523000000FC3D04246314604F1300002F045FA77
:10524000C4F87080BCE7DFF80890B9E76079000027
:105250000C02F0002DE9FF41144B04460E460FCB23
:105260006F4687E80F002046FFF772FF8046B0B90F
:10527000CEB1636A251D01953BB901236362226F9C
:1052800004F13001384600F073FB2B46043E243411
:1052900053F8042B12BAA34246F8042FF8D1404623
:1052A00004B0BDE8F081DFF80880F8E7607900001D
:1052B0000502F000084B1B681B0EF02B08D1074BB2
:1052C0001A68074B9A4205D1064B002018607047B8
:1052D000052070470620704728B9025024BA0250B2
:1052E0000000E0200CBA0250002230B549001346FD
:1052F000023840F6FC7502F1A05404F52C44A400D9
:10530000904202F10102CABF236025605B181E2A89
:10531000F1D1044A13600B445360034B034A1A60F3
:1053200030BD00BF78B0025084B0025020F80F00AA
:1053300030B51E4B85B01A46196800910099CC070C
:10534000FAD500F1A05000F52C40800001681368E8
:105350000193019BD807FAD5154B164C1868164DCA
:105360001F30202390FBF3F00138002810DA0023CF
:105370000130400153B1A0F120014FF0004213422F
:1053800004D1013888424FEA5202F8D105B030BD4D
:1053900013680393039BDB07FAD5431823602B683C
:1053A0000293029B002BE3D10138DEE7B4B0025038
:1053B000ACB00250E4B00250DCB00250F0B51D6851
:1053C00085B001F01F040DB91F2C25D1154D2E46B7
:1053D0002F680197019FFF07FAD500F1A05000F553
:1053E0002C408000006835680395039DED07FAD5D1
:1053F0000D4D00EB611028600C48006802901F2CD6
:1054000018BFC94302980FBF106001F01F0100FAD6
:1054100001F111600021196010684300C00F136092
:1054200005B0F0BDB4B00250E4B00250DCB00250A0
:105430000C4B18603F3020F03F008901403058602D
:105440009960D9601961596199611C3306481960E6
:1054500082B002680192019AD207FAD5196002B0AF
:10546000704700BF90B00250B4B0025038B5A0F100
:105470002003B3F5426F05462CD88F2826D800F1BB
:10548000470300F16604DB064FEA541400D00134F0
:1054900064013F34A409013411B1A1421AD30C466E
:1054A000E3004FF48050B0FBF3F0202828BF202009
:1054B00002B11060084B01221A602146FFF714FF69
:1054C00028462146FFF7B4FF002038BD00F11F0435
:1054D0006409DDE70148F8E71CB802502221F0001A
:1054E000F0B5454B89B01D461C680194019CE4074A
:1054F000FAD5424BDFF80CE1DFF80CC113449B00F6
:1055000000241A680B181E2B88BFC0F11E011F3221
:105510000B1852095343B3F5806F82BF4FF480617B
:10552000B1FBF2F1091A00F1A05000F52C4027461A
:10553000A14233DC2B680493049BDB07FAD5304B84
:105540001B68296805910599CF07FAD52D4C2E497E
:10555000236000231E46934203F1010040D120F056
:1055600001022948194600268A423CD8296806913A
:105570000699CE07FAD52549096828680790079843
:10558000C007FAD52160204800210C468B422DD15E
:105590001D4900209A422CD809B0F0BD2B68029317
:1055A000029BDB07FAD503199B001B682E68039644
:1055B000039EF607FAD5CEF800300023934203F19C
:1055C000010306D1164623F00103B34204D8013487
:1055D000AEE7CCF80070F1E7CCF800700136F4E7E4
:1055E0000E600346B7E706600131BDE70460013194
:1055F000CCE708600133CDE7B4B0025024AC00140E
:105600007CB00250D4B00250D8B0025078B00250F2
:1056100008B540B1202801464FF0070228BF2021DD
:105620000020FFF75DFF024B00221A6008BD00BF9B
:105630001CB80250F0B5294D85B02C462E68009656
:10564000009EF607FAD500F1A05000F52C4080002E
:105650000568206801900198C707FAD52048214FB6
:10566000056002EB8306B24229D15A1C1D4E22F07E
:10567000010200279A4227D823680293029BDE0783
:10568000FAD5194B0B449B001B681F335B099A42E8
:1056900013D2216803910399C907FAD51544002153
:1056A0009B1A104A056008468B4210D85A1C0D49B7
:1056B00022F0010200209A420CD805B0F0BD52F849
:1056C00004CBC7F800C0CEE737600133D2E71060E3
:1056D0000131E9E708600133EDE700BFB4B00250E3
:1056E000D4B00250D8B0025024AC00142DE9F041DF
:1056F000814B1D6898682033A0B01E461A6801923D
:10570000019AD707FAD57D4B7D4A1A60326802921A
:10571000029AD407FAD57B4A1A607B4A144611686C
:1057200003910399C907FAD5784A1168C1F340215A
:1057300037680497049FFF07FAD5754F1F602768E5
:105740000597059FFF07FAD51768002900F0CF805D
:10575000B90540F1CC80316806910699CF07FAD59A
:105760006C491960216807910799C907FAD5116832
:10577000C1F3402137680897089FFF07FAD5664FA5
:105780001F6027680997099FFF07FAD5126800294B
:1057900000F0AF80910540F1AC8032680A920A9A1D
:1057A000D207FAD5564A1A6032680B920B9AD7077D
:1057B000FAD55A4A1A6031680C910C99CC07FAD57F
:1057C0005749196031680D910D99C907FAD55549A6
:1057D000196031680E910E99CF07FAD552491960B8
:1057E00031680F910F99CC07FAD550491960504B89
:1057F0001E46196810911099C907FAD53F4C4D4BB8
:10580000236033681193119BDB07FAD54A4B236061
:1058100033681293129BDF07FAD5484B23603A4B4B
:105820009846196813911399C907FAD5324F386011
:1058300033681493149BDB07FAD522603368159301
:10584000159BD807FAD53E4B236033681693169BF9
:10585000D907FAD53B4B236033681793179BDA07B8
:10586000FAD5394B236033681893189BDB07FAD5B8
:10587000364B236033681993199BD807FAD5344BFC
:10588000236033681A931A9BD907FAD5314B2360EA
:1058900033681B931B9BDA07FAD52F4B236000F06C
:1058A0001DFC08BBD8F800301C931C9BDB07F9D506
:1058B0003D6033681D931D9BD907FAD5274B2360A4
:1058C00033681E931E9BDA07FAD5254B2360D8F860
:1058D00000301F931F9BDB07F9D50C4B1B6813F49B
:1058E000805F204B08BF184620B0BDE8F0811E48FD
:1058F000FAE71E48F8E700BF90B0025080B00250AF
:1059000000100251C01F7229B4B0025088B002507A
:10591000C0CF0129C01F0E29C03F00294001024904
:10592000003184A800001649400108A1804408887D
:10593000B0B00250C044708880077A41C0077E41F1
:1059400000006A498006164940006E4900020021A5
:1059500000822021408220218082242140A161A157
:1059600000C861510308F1000108F1000208F100CC
:105970002DE9F74F314B44688046924699461A68A4
:10598000002AFCD12E4B9B461A68002AFCD14FF00E
:10599000FF30019100F094FC802000F097FC294D2D
:1059A000294A2A4F2A4E012307202B60A2F59E7216
:1059B000C2F83C011360636A3B60A36A3360D8F8A5
:1059C000003042F8043CD8F8083020469847019946
:1059D000D9F80030002BFBD1BAF1000F20D11D4BBC
:1059E00004221A60D9F80030002BFBD1DBF800A0AC
:1059F000BAF1000FFAD1D8F80C30204698473B682E
:105A000063623368A362144BC3F800A0C3F844A1D7
:105A1000D9F80030002BFBD12B6003B0BDE8F08F2C
:105A2000236A012B04BF0C4A13600C4B4020196001
:105A3000C3F804A000F050FCD4E700BF10B9025036
:105A400020BC025018B8025000B90250CCB7025026
:105A5000D0B70250C8B7025084B6025028BC0250DA
:105A600010B5544B98B019461A680192019AD207A2
:105A7000FAD5514B514A1A600A680292029AD40729
:105A8000FAD54F4A1A600A680392039AD007FAD5EA
:105A90004C4818600A680492049AD207FAD54A4A18
:105AA0001A600A680592059AD407FAD5474A1A601F
:105AB0000A680692069AD207FAD5454A1A600A6819
:105AC0000792079AD407FAD5424A1A600A680892E0
:105AD000089AD207FAD5404A1A600A680992099AC8
